{
  "_format": "hh-sol-artifact-1",
  "contractName": "Upload",
  "sourceName": "contracts/Upload.sol",
  "abi": [
    {
      "anonymous": false,
      "inputs": [
        {
          "indexed": true,
          "internalType": "address",
          "name": "owner",
          "type": "address"
        },
        {
          "indexed": true,
          "internalType": "address",
          "name": "user",
          "type": "address"
        }
      ],
      "name": "AccessGranted",
      "type": "event"
    },
    {
      "anonymous": false,
      "inputs": [
        {
          "indexed": true,
          "internalType": "address",
          "name": "owner",
          "type": "address"
        },
        {
          "indexed": true,
          "internalType": "address",
          "name": "user",
          "type": "address"
        }
      ],
      "name": "AccessRevoked",
      "type": "event"
    },
    {
      "anonymous": false,
      "inputs": [
        {
          "indexed": true,
          "internalType": "address",
          "name": "user",
          "type": "address"
        },
        {
          "indexed": false,
          "internalType": "string",
          "name": "url",
          "type": "string"
        }
      ],
      "name": "FileAdded",
      "type": "event"
    },
    {
      "inputs": [
        {
          "internalType": "address",
          "name": "_user",
          "type": "address"
        },
        {
          "internalType": "string",
          "name": "url",
          "type": "string"
        }
      ],
      "name": "add",
      "outputs": [],
      "stateMutability": "nonpayable",
      "type": "function"
    },
    {
      "inputs": [
        {
          "internalType": "address",
          "name": "user",
          "type": "address"
        }
      ],
      "name": "allow",
      "outputs": [],
      "stateMutability": "nonpayable",
      "type": "function"
    },
    {
      "inputs": [
        {
          "internalType": "address",
          "name": "user",
          "type": "address"
        }
      ],
      "name": "disallow",
      "outputs": [],
      "stateMutability": "nonpayable",
      "type": "function"
    },
    {
      "inputs": [
        {
          "internalType": "address",
          "name": "_user",
          "type": "address"
        }
      ],
      "name": "display",
      "outputs": [
        {
          "internalType": "string[]",
          "name": "",
          "type": "string[]"
        }
      ],
      "stateMutability": "view",
      "type": "function"
    },
    {
      "inputs": [],
      "name": "shareAccess",
      "outputs": [
        {
          "components": [
            {
              "internalType": "address",
              "name": "user",
              "type": "address"
            },
            {
              "internalType": "bool",
              "name": "access",
              "type": "bool"
            }
          ],
          "internalType": "struct Upload.Access[]",
          "name": "",
          "type": "tuple[]"
        }
      ],
      "stateMutability": "view",
      "type": "function"
    }
  ],
  "bytecode": "0x608060405234801561001057600080fd5b506115d3806100206000396000f3fe608060405234801561001057600080fd5b50600436106100575760003560e01c806336d6da551461005c578063a9ed9cb814610078578063bc8bef8114610094578063eb39113f146100b2578063ff9913e8146100e2575b600080fd5b61007660048036038101906100719190610e1f565b6100fe565b005b610092600480360381019061008d9190610e7b565b6101c1565b005b61009c61043d565b6040516100a99190610fb0565b60405180910390f35b6100cc60048036038101906100c79190610e7b565b610585565b6040516100d99190611113565b60405180910390f35b6100fc60048036038101906100f79190610e7b565b6106db565b005b6000808373ffffffffffffffffffffffffffffffffffffffff1673ffffffffffffffffffffffffffffffffffffffff1681526020019081526020016000208190806001815401808255809150506001900390600052602060002001600090919091909150908161016e919061134b565b508173ffffffffffffffffffffffffffffffffffffffff167f771ad20575501c8cafc4a8793006515911d6e497fd5838018654c9b50347430c826040516101b59190611467565b60405180910390a25050565b6000600160003373ffffffffffffffffffffffffffffffffffffffff1673ffffffffffffffffffffffffffffffffffffffff16815260200190815260200160002060008373ffffffffffffffffffffffffffffffffffffffff1673ffffffffffffffffffffffffffffffffffffffff16815260200190815260200160002060006101000a81548160ff02191690831515021790555060005b600260003373ffffffffffffffffffffffffffffffffffffffff1673ffffffffffffffffffffffffffffffffffffffff168152602001908152602001600020805490508110156103df578173ffffffffffffffffffffffffffffffffffffffff16600260003373ffffffffffffffffffffffffffffffffffffffff1673ffffffffffffffffffffffffffffffffffffffff168152602001908152602001600020828154811061030b5761030a611489565b5b9060005260206000200160000160009054906101000a900473ffffffffffffffffffffffffffffffffffffffff1673ffffffffffffffffffffffffffffffffffffffff16036103cc576000600260003373ffffffffffffffffffffffffffffffffffffffff1673ffffffffffffffffffffffffffffffffffffffff16815260200190815260200160002082815481106103a7576103a6611489565b5b9060005260206000200160000160146101000a81548160ff0219169083151502179055505b80806103d7906114e7565b915050610259565b508073ffffffffffffffffffffffffffffffffffffffff163373ffffffffffffffffffffffffffffffffffffffff167f825c8be24eb0df19500f63e86c29e7d0d951e73056b889b891d85e40938d9b6e60405160405180910390a350565b606061047e6040518060400160405280600f81526020017f53656e64657220616464726573733a000000000000000000000000000000000081525033610b7b565b600260003373ffffffffffffffffffffffffffffffffffffffff1673ffffffffffffffffffffffffffffffffffffffff168152602001908152602001600020805480602002602001604051908101604052809291908181526020016000905b8282101561057c578382906000526020600020016040518060400160405290816000820160009054906101000a900473ffffffffffffffffffffffffffffffffffffffff1673ffffffffffffffffffffffffffffffffffffffff1673ffffffffffffffffffffffffffffffffffffffff1681526020016000820160149054906101000a900460ff161515151581525050815260200190600101906104dd565b50505050905090565b60606105c66040518060400160405280600f81526020017f53656e64657220616464726573733a000000000000000000000000000000000081525033610b7b565b6000808373ffffffffffffffffffffffffffffffffffffffff1673ffffffffffffffffffffffffffffffffffffffff168152602001908152602001600020805480602002602001604051908101604052809291908181526020016000905b828210156106d057838290600052602060002001805461064390611164565b80601f016020809104026020016040519081016040528092919081815260200182805461066f90611164565b80156106bc5780601f10610691576101008083540402835291602001916106bc565b820191906000526020600020905b81548152906001019060200180831161069f57829003601f168201915b505050505081526020019060010190610624565b505050509050919050565b60018060003373ffffffffffffffffffffffffffffffffffffffff1673ffffffffffffffffffffffffffffffffffffffff16815260200190815260200160002060008373ffffffffffffffffffffffffffffffffffffffff1673ffffffffffffffffffffffffffffffffffffffff16815260200190815260200160002060006101000a81548160ff021916908315150217905550600360003373ffffffffffffffffffffffffffffffffffffffff1673ffffffffffffffffffffffffffffffffffffffff16815260200190815260200160002060008273ffffffffffffffffffffffffffffffffffffffff1673ffffffffffffffffffffffffffffffffffffffff16815260200190815260200160002060009054906101000a900460ff161561098d5760005b600260003373ffffffffffffffffffffffffffffffffffffffff1673ffffffffffffffffffffffffffffffffffffffff16815260200190815260200160002080549050811015610987578173ffffffffffffffffffffffffffffffffffffffff16600260003373ffffffffffffffffffffffffffffffffffffffff1673ffffffffffffffffffffffffffffffffffffffff16815260200190815260200160002082815481106108b3576108b2611489565b5b9060005260206000200160000160009054906101000a900473ffffffffffffffffffffffffffffffffffffffff1673ffffffffffffffffffffffffffffffffffffffff1603610974576001600260003373ffffffffffffffffffffffffffffffffffffffff1673ffffffffffffffffffffffffffffffffffffffff168152602001908152602001600020828154811061094f5761094e611489565b5b9060005260206000200160000160146101000a81548160ff0219169083151502179055505b808061097f906114e7565b915050610801565b50610b1e565b600260003373ffffffffffffffffffffffffffffffffffffffff1673ffffffffffffffffffffffffffffffffffffffff16815260200190815260200160002060405180604001604052808373ffffffffffffffffffffffffffffffffffffffff168152602001600115158152509080600181540180825580915050600190039060005260206000200160009091909190915060008201518160000160006101000a81548173ffffffffffffffffffffffffffffffffffffffff021916908373ffffffffffffffffffffffffffffffffffffffff16021790555060208201518160000160146101000a81548160ff02191690831515021790555050506001600360003373ffffffffffffffffffffffffffffffffffffffff1673ffffffffffffffffffffffffffffffffffffffff16815260200190815260200160002060008373ffffffffffffffffffffffffffffffffffffffff1673ffffffffffffffffffffffffffffffffffffffff16815260200190815260200160002060006101000a81548160ff0219169083151502179055505b8073ffffffffffffffffffffffffffffffffffffffff163373ffffffffffffffffffffffffffffffffffffffff167f9f520b3bfc56d06f7065d10b4683b3f57ac8895d5026cd176dee95ce1454cb8d60405160405180910390a350565b610c138282604051602401610b9192919061153e565b6040516020818303038152906040527f319af333000000000000000000000000000000000000000000000000000000007bffffffffffffffffffffffffffffffffffffffffffffffffffffffff19166020820180517bffffffffffffffffffffffffffffffffffffffffffffffffffffffff8381831617835250505050610c17565b5050565b610c2e81610c26610c31610c52565b63ffffffff16565b50565b60006a636f6e736f6c652e6c6f679050600080835160208501845afa505050565b610c5d819050919050565b610c6561156e565b565b6000604051905090565b600080fd5b600080fd5b600073ffffffffffffffffffffffffffffffffffffffff82169050919050565b6000610ca682610c7b565b9050919050565b610cb681610c9b565b8114610cc157600080fd5b50565b600081359050610cd381610cad565b92915050565b600080fd5b600080fd5b6000601f19601f8301169050919050565b7f4e487b7100000000000000000000000000000000000000000000000000000000600052604160045260246000fd5b610d2c82610ce3565b810181811067ffffffffffffffff82111715610d4b57610d4a610cf4565b5b80604052505050565b6000610d5e610c67565b9050610d6a8282610d23565b919050565b600067ffffffffffffffff821115610d8a57610d89610cf4565b5b610d9382610ce3565b9050602081019050919050565b82818337600083830152505050565b6000610dc2610dbd84610d6f565b610d54565b905082815260208101848484011115610dde57610ddd610cde565b5b610de9848285610da0565b509392505050565b600082601f830112610e0657610e05610cd9565b5b8135610e16848260208601610daf565b91505092915050565b60008060408385031215610e3657610e35610c71565b5b6000610e4485828601610cc4565b925050602083013567ffffffffffffffff811115610e6557610e64610c76565b5b610e7185828601610df1565b9150509250929050565b600060208284031215610e9157610e90610c71565b5b6000610e9f84828501610cc4565b91505092915050565b600081519050919050565b600082825260208201905092915050565b6000819050602082019050919050565b610edd81610c9b565b82525050565b60008115159050919050565b610ef881610ee3565b82525050565b604082016000820151610f146000850182610ed4565b506020820151610f276020850182610eef565b50505050565b6000610f398383610efe565b60408301905092915050565b6000602082019050919050565b6000610f5d82610ea8565b610f678185610eb3565b9350610f7283610ec4565b8060005b83811015610fa3578151610f8a8882610f2d565b9750610f9583610f45565b925050600181019050610f76565b5085935050505092915050565b60006020820190508181036000830152610fca8184610f52565b905092915050565b600081519050919050565b600082825260208201905092915050565b6000819050602082019050919050565b600081519050919050565b600082825260208201905092915050565b60005b8381101561103857808201518184015260208101905061101d565b60008484015250505050565b600061104f82610ffe565b6110598185611009565b935061106981856020860161101a565b61107281610ce3565b840191505092915050565b60006110898383611044565b905092915050565b6000602082019050919050565b60006110a982610fd2565b6110b38185610fdd565b9350836020820285016110c585610fee565b8060005b8581101561110157848403895281516110e2858261107d565b94506110ed83611091565b925060208a019950506001810190506110c9565b50829750879550505050505092915050565b6000602082019050818103600083015261112d818461109e565b905092915050565b7f4e487b7100000000000000000000000000000000000000000000000000000000600052602260045260246000fd5b6000600282049050600182168061117c57607f821691505b60208210810361118f5761118e611135565b5b50919050565b60008190508160005260206000209050919050565b60006020601f8301049050919050565b600082821b905092915050565b6000600883026111f77fffffffffffffffffffffffffffffffffffffffffffffffffffffffffffffffff826111ba565b61120186836111ba565b95508019841693508086168417925050509392505050565b6000819050919050565b6000819050919050565b600061124861124361123e84611219565b611223565b611219565b9050919050565b6000819050919050565b6112628361122d565b61127661126e8261124f565b8484546111c7565b825550505050565b600090565b61128b61127e565b611296818484611259565b505050565b5b818110156112ba576112af600082611283565b60018101905061129c565b5050565b601f8211156112ff576112d081611195565b6112d9846111aa565b810160208510156112e8578190505b6112fc6112f4856111aa565b83018261129b565b50505b505050565b600082821c905092915050565b600061132260001984600802611304565b1980831691505092915050565b600061133b8383611311565b9150826002028217905092915050565b61135482610ffe565b67ffffffffffffffff81111561136d5761136c610cf4565b5b6113778254611164565b6113828282856112be565b600060209050601f8311600181146113b557600084156113a3578287015190505b6113ad858261132f565b865550611415565b601f1984166113c386611195565b60005b828110156113eb578489015182556001820191506020850194506020810190506113c6565b868310156114085784890151611404601f891682611311565b8355505b6001600288020188555050505b505050505050565b600082825260208201905092915050565b600061143982610ffe565b611443818561141d565b935061145381856020860161101a565b61145c81610ce3565b840191505092915050565b60006020820190508181036000830152611481818461142e565b905092915050565b7f4e487b7100000000000000000000000000000000000000000000000000000000600052603260045260246000fd5b7f4e487b7100000000000000000000000000000000000000000000000000000000600052601160045260246000fd5b60006114f282611219565b91507fffffffffffffffffffffffffffffffffffffffffffffffffffffffffffffffff8203611524576115236114b8565b5b600182019050919050565b61153881610c9b565b82525050565b60006040820190508181036000830152611558818561142e565b9050611567602083018461152f565b9392505050565b7f4e487b7100000000000000000000000000000000000000000000000000000000600052605160045260246000fdfea264697066735822122006be02f40a50ee0590ac48b9a574159438e42739c8aa16c8c8ed127661c4c35964736f6c63430008140033",
  "linkReferences": {},
  "deployedLinkReferences": {}
}